:1000000045C0000007C100005FC000005DC00000E7
:100010005BC000005EC10000A2C10000E7C100009B
:100020002DC2000051C000004FC000004DC00000B4
:100030004BC0000049C0000047C0000045C00000A0
:1000400053C2000041C000003FC000003DC000009E
:100050003BC0000039C0000037C0000035C00000C0
:1000600033C0000031C000006BC200002DC0000092
:100070002BC0000029C0000027C0000025C00000E0
:1000800023C0000021C000001FC0000011241FBEBB
:10009000CFEFD0E1DEBFCDBF14E0A0E0B1E0E2E5FC
:1000A000F1E100E00BBF02C007900D92A636B10748
:1000B000D9F724E0A6E6B4E001C01D92A239B20748
:1000C000E1F75AD40C94A7089BCF89B988E18AB983
:1000D00008955D9BFECF8CB90895CF93DF93EC011B
:1000E00002C02196F6DF88818111FBCFDF91CF918D
:1000F00008955D9BFECF8CB1089584E191E0EDDF22
:100100008FEF8ABB9FE09093640084BB12B811BA52
:1001100087B3806187BB089580E090E00FC0FC0149
:10012000E05FFE4F2081209365002FEF25BBEFE9B4
:10013000FFE03197F1F700C000000196843091058F
:1001400074F30895EF92FF920F931F93CF93DF9371
:100150008C016CE370E0F9D47B019C01C0E1D1E03B
:100160008881E5E6F0E08083C80168E572E0EDD4BF
:10017000DB01AA5FBE4F8C91809585BB8FE99FE024
:100180000197F1F700C00000898180830AE010E048
:10019000C701B801DAD4DC01AA5FBE4F9C918FE79A
:1001A000891B85BBAFE9BFE01197F1F700C00000E4
:1001B0008A818083C901B801C8D4DB01AA5FBE4F20
:1001C0002C91209525BBAFE9BFE01197F1F700C056
:1001D00000002B812083FC01EA5FFE4F8081809527
:1001E00085BB8FE99FE00197F1F700C00000DF9128
:1001F000CF911F910F91FF90EF90089584E291E0CD
:100200006CDF8AEA8ABF8FEF80936A0089B7816FBB
:1002100089BF08951F920F920FB60F9211240BB64B
:100220000F922F933F938F939F93EF93FF9381E0D0
:1002300090E090937B0480937A0480917C04909169
:100240007D048130910519F0029791F021C08091D1
:100250007604909177040097D9F021E030E0309354
:100260006D0420936C0490936F0480936E0410C00F
:100270008091780490917904009751F021E030E06A
:10028000309369042093680490936B0480936A040C
:1002900007B600FE11C087B78E7F87BF10926D042E
:1002A00010926C041092690410926804E6E7F4E07E
:1002B0001182108213821282FF91EF919F918F9190
:1002C0003F912F910F900BBE0F900FBE0F901F907C
:1002D00018951F920F920FB60F9211240BB60F9222
:1002E0002F933F934F935F936F937F938F939F933E
:1002F000AF93BF93EF93FF9380917A0490917B0427
:10030000009719F0019799F016C0809174049091AC
:1003100075040196909375048093740448975CF07B
:1003200088E190E0909375048093740404C0109267
:100330007D0410927C04F0DEFF91EF91BF91AF91AC
:100340009F918F917F916F915F914F913F912F91ED
:100350000F900BBE0F900FBE0F901F9018951F921D
:100360000F920FB60F9211240BB60F922F933F935B
:100370004F935F936F937F938F939F93AF93BF93AD
:10038000EF93FF9380917A0490917B04009719F08A
:10039000019791F017C080917404909175040197B2
:1003A0009093750480937404181619065CF01092EB
:1003B00075041092740406C081E090E090937D046F
:1003C00080937C04A9DEFF91EF91BF91AF919F9143
:1003D0008F917F916F915F914F913F912F910F90EE
:1003E0000BBE0F900FBE0F901F9018951F920F928B
:1003F0000FB60F9211240BB60F922F933F934F938A
:100400005F936F937F938F939F93AF93BF93EF937C
:10041000FF9380917A0490917B04009719F00197E3
:1004200099F018C080917204909173040196909392
:10043000730480937204CC976CF08CE390E09093FB
:1004400073048093720406C082E090E090937D0470
:1004500080937C0461DEFF91EF91BF91AF919F91FA
:100460008F917F916F915F914F913F912F910F905D
:100470000BBE0F900FBE0F901F9018951F920F92FA
:100480000FB60F9211248F939F9380917A049091CD
:100490007B04009719F0019789F016C080917204CF
:1004A00090917304019790937304809372041816CB
:1004B000190624F0109273041092720483E090E005
:1004C00090937D0480937C049F918F910F900FBE39
:1004D0000F901F9018958AE391E0FFDD83E083BFC2
:1004E00087B78E7F87BF08951F920F920FB60F9226
:1004F00011248F939F9398B380E1892788BB81E172
:1005000082BF9F918F910F900FBE0F901F901895F3
:1005100086E591E0E2DD10928B008DE080938A0009
:10052000109289001092880088E09DE390938700E4
:1005300080938600EDE7F0E08081806180830895FC
:100540001F920F920FB60F9211240BB60F922F939A
:100550003F934F935F936F937F938F939F93AF934B
:10056000BF93EF93FF938091660490916704019687
:100570009093670480936604CC9744F18091700453
:10058000909171040196909371048093700410927D
:100590006704109266046CE370E0D7D29F938F9348
:1005A0007F936F9382E791E09F938F938EE794E020
:1005B0009F938F93F1D28EE794E08FDD8DB79EB736
:1005C00008960FB6F8949EBF0FBE8DBF80916C0445
:1005D00090916D040197B9F480916E0490916F042D
:1005E000019790936F0480936E04181619065CF0BF
:1005F00087B7816087BF10926F0410926E041092CB
:10060000770410927604FF91EF91BF91AF919F9183
:100610008F917F916F915F914F913F912F910F90AB
:100620000BBE0F900FBE0F901F9018958CE891E0B5
:1006300054DDE1E6F0E080818E7F808317B887E8A3
:1006400086B9089586B1806486B9349BFECF24B103
:1006500085B197B1911103C091E097B904C097B1EA
:10066000913009F417B890E0982F8827822B0895CD
:1006700088EC91E032DD8BE991E02FDD87EC91E0B1
:100680002CDD8BEC91E029DD82EF91E026DD83E229
:1006900092E023DD89E492E020DD8EE692E01DDD2C
:1006A0008AE992E01ADD8FEB92E017DD89ED92E0A6
:1006B00014DD83EF92E011DD83E293E00EDD85E54A
:1006C00093E00BDD87EC91E008DD83E993E005DD45
:1006D0008EEC93E002DD87EC91E0FFDC87EC91E0AB
:1006E000FCDC8EE094E0F9CC0895853691051CF58C
:1006F000209102013091030121503109309303010F
:100700002093020112161306B4F0209104013091D7
:100710000501243031051CF42F5F3F4F02C024E057
:1007200030E0309305012093040122E330E0309360
:10073000030120930201843893400CF1809102015F
:100740009091030101979093030180930201181681
:100750001906ACF080910401909105018230910559
:1007600014F0019702C081E090E09093050180931E
:10077000040182E390E09093030180930201809151
:100780000001909101010197909301018093000174
:10079000181619060CF4ACC0809104019091050163
:1007A0008230910559F11CF4019749F09BC08330C8
:1007B000910509F44AC0049709F46EC093C0FA0188
:1007C000319731E020E06A3983E078070CF430E0BB
:1007D000832F922F21E030E0693C710514F020E076
:1007E00030E0821B930BEE0FFF1FEA58FB4F208176
:1007F0003181820F931F9183808374C0CA01019756
:10080000FC01EE0FFF1FEA58FB4FA081B1816A394E
:1008100023E072071CF02AE030E002C020E030E064
:10082000653671051CF46AE070E002C060E070E0BB
:10083000261B370B880F991FFC01EA58FB4FCD018F
:10084000820F931F918380834DC0CA010197FC01E1
:10085000EE0FFF1FEA58FB4FA081B1816A3923E0F8
:1008600072071CF02CE330E002C020E030E0653677
:1008700071051CF46CE370E002C060E070E0261BC0
:10088000370B880F991FFC01EA58FB4FCD01820FEF
:10089000931F9183808326C0CA010197FC01EE0F4C
:1008A000FF1FEA58FB4FA081B1816A3923E072072C
:1008B0001CF028E532E002C020E030E0653671052A
:1008C0001CF468E572E002C060E070E0261B370BA4
:1008D000880F991FFC01EA58FB4FCD01820F931F2F
:1008E000918380838EE190E09093010180930001D9
:1008F000CA010197FC01EE0FFF1FEA58FB4F208150
:100900003181121613063CF0FC01EE0FFF1FEA586E
:10091000FB4F118210824130510521F042305105C8
:10092000B1F00895FC01EE0FFF1FEA58FB4F208144
:100930003181203747E1340714F02FE637E1880F83
:10094000991FFC01EA58FB4F318320830895FC0175
:10095000EE0FFF1FEA58FB4F20813181213A45E01D
:10096000340714F020EA35E0880F991FFC01EA589B
:10097000FB4F31832083089587E690E0A6DB85E274
:1009800094E0ABDBBADB3ADCA6DDC2DD4FDE789467
:100990006FDEAFDB8337E9F788E394E09EDB80917D
:1009A0007404909175044CE3489F9001499F300D69
:1009B00011248091720490917304820F931F90937D
:1009C000710480937004BEDB809BE9CF88EC91E0DA
:1009D00084DB809173048F93809172048F93809154
:1009E00075048F93809174048F938AE494E09F93AD
:1009F0008F938EE794E09F938F93CED08EE794E011
:100A00006CDB10927D0410927C048DB79EB7089623
:100A10000FB6F8949EBF0FBE8DBF00E010E0C0E09F
:100A2000D0E080917C0490917D048130910561F04B
:100A30008230910591F1892B09F057C080917004A3
:100A4000909171047FDB67C080916C0490916D047C
:100A5000892B21F4F7DDEC01F5DD8C0140917C045C
:100A600050917D04B801CE0140DE80916C049091DC
:100A70006D04892B29F4809176049091770462DBD0
:100A800080916C0490916D04019709F044C08091AD
:100A90006E0490916F0456DB3EC080916804909183
:100AA0006904892B21F4CEDDEC01CCDD8C01409171
:100AB0007C0450917D04B801CE0117DE809168045A
:100AC00090916904892B29F480917804909179049C
:100AD00039DB80916804909169040197E1F4809179
:100AE0006A0490916B042EDB16C0E5E6F0E084E02A
:100AF000808381EA85BB8FE99FE00197F1F700C011
:100B0000000088E0808381E985BB8FE99FE0019741
:100B1000F1F700C0000020916A0430916B048091CD
:100B20007004909171042817390709F07ACF87B7BC
:100B3000816087BF88B388BB10926B0410926A04EF
:100B400010927904109278046CCF97FB072E16F45C
:100B5000009406D077FD08D00BD007FC05D03EF4FA
:100B6000909581959F4F0895709561957F4F089559
:100B7000AA1BBB1B51E107C0AA1FBB1FA617B707C3
:100B800010F0A61BB70B881F991F5A95A9F78095DF
:100B90009095BC01CD0108950F931F93CF93DF93E0
:100BA000CDB7DEB72E970FB6F894DEBF0FBECDBF20
:100BB0000D891E8986E08C831A8309838FEF9FE756
:100BC0009E838D83AE01475E5F4F6F89788DCE0126
:100BD000019610D0EF81F885E00FF11F10822E965C
:100BE0000FB6F894DEBF0FBECDBFDF91CF911F913E
:100BF0000F9108952F923F924F925F926F927F9242
:100C00008F929F92AF92BF92CF92DF92EF92FF921C
:100C10000F931F93CF93DF93CDB7DEB72B970FB60C
:100C2000F894DEBF0FBECDBF6C017B018A01FC01D1
:100C300017821682838181FFBFC1CE0101963C01DC
:100C4000F6019381F70193FD859193FF81917F01D7
:100C5000882309F4ADC1853239F493FD859193FF62
:100C600081917F01853221F4B60190E0D6D1E8CFA1
:100C7000912C212C312CFFE1F315D8F08B3279F037
:100C800038F4803279F08332A1F4232D20611DC025
:100C90008D3261F0803369F4232D216016C0832DDD
:100CA0008260382EE32DE4603E2E2AC0F32DF860DA
:100CB0001DC037FC2DC020ED280F2A3040F08E32A9
:100CC000B9F436FC75C1232D2064322E19C036FECE
:100CD00006C08AE0989E200D1124922E11C0EAE0F1
:100CE0002E9E200D1124222EF32DF0623F2E08C0DF
:100CF0008C3621F4832D8068382E02C0883641F46A
:100D0000F70193FD859193FF81917F018111B3CF0D
:100D1000982F9F7D9554933028F40C5F1F4F9FE3CD
:100D200099830DC0833631F0833771F0833509F034
:100D300055C020C0F801808189830E5F1F4F882431
:100D40008394912C530112C02801F2E04F0E511CE4
:100D5000F801A080B18036FE03C0692D70E002C0AA
:100D60006FEF7FEFC5014ED14C018201F32DFF776C
:100D70003F2E15C0280122E0420E511CF801A08030
:100D8000B18036FE03C0692D70E002C06FEF7FEFC7
:100D9000C5012DD14C01F32DF0683F2E820133FCAB
:100DA00019C0822D90E088169906A0F4B60180E261
:100DB00090E033D12A94F5CFF50137FC859137FEC9
:100DC00081915F01B60190E028D121102A9421E0A1
:100DD000821A91088114910479F7E1C0843611F0E8
:100DE000893639F5F80137FE07C06081718182814B
:100DF00093810C5F1F4F08C060817181072E000C2A
:100E0000880B990B0E5F1F4FF32DFF763F2E97FF38
:100E100009C090958095709561957F4F8F4F9F4F3A
:100E2000F0683F2E2AE030E0A30133D1882E8618E7
:100E300044C0853731F4232D2F7EB22E2AE030E0D6
:100E400025C0932D997FB92E8F36C1F018F48835BF
:100E500079F0AEC0803719F0883721F0A9C0E92FAA
:100E6000E061BE2EB4FE0DC0FB2DF460BF2E09C0A4
:100E700034FE0AC0292F2660B22E06C028E030E0DA
:100E800005C020E130E002C020E132E0F801B7FE09
:100E900007C060817181828193810C5F1F4F06C002
:100EA0006081718180E090E00E5F1F4FA301F1D05F
:100EB000882E8618FB2DFF773F2E36FE0DC0232D82
:100EC0002E7FA22E891458F434FE0BC032FC09C0C8
:100ED000832D8E7EA82E05C0B82CA32C03C0B82C61
:100EE00001C0B92CA4FE0FC0FE01E80DF11D8081E8
:100EF000803321F49A2D997EA92E09C0A2FE06C046
:100F0000B394B39404C08A2D867809F0B394A3FCFB
:100F100010C0A0FE06C0B21480F4280C922C9B18BE
:100F20000DC0B21458F4B60180E290E076D0B394CC
:100F3000F8CFB21418F42B1802C0982C212CA4FE60
:100F40000FC0B60180E390E068D0A2FE16C0A1FCFD
:100F500003C088E790E002C088E590E0B6010CC0CD
:100F60008A2D867851F0A1FE02C08BE201C080E29A
:100F7000A7FC8DE2B60190E050D0891430F4B601A0
:100F800080E390E04AD09A94F8CF8A94F301E80D78
:100F9000F11D8081B60190E040D08110F6CF222073
:100FA00009F44ECEB60180E290E037D02A94F7CF14
:100FB000F6018681978102C08FEF9FEF2B960FB6C7
:100FC000F894DEBF0FBECDBFDF91CF911F910F917F
:100FD000FF90EF90DF90CF90BF90AF909F908F9059
:100FE0007F906F905F904F903F902F900895FC01FD
:100FF0000590615070400110D8F7809590958E0F44
:101000009F1F0895FC016150704001900110D8F7B6
:10101000809590958E0F9F1F08950F931F93CF93E8
:10102000DF93FB01238121FD03C08FEF9FEF2CC0D5
:1010300022FF16C04681578124813581421753070C
:1010400044F4A081B1819D012F5F3F4F3183208304
:101050008C93268137812F5F3F4F3783268314C0BF
:101060008B01EC01FB010084F185E02D0995892BB2
:10107000E1F6D80116968D919C91179701961796D7
:101080009C938E931697CE01DF91CF911F910F9174
:101090000895FA01AA27283051F1203181F1E8940E
:1010A0006F936E7F6E5F7F4F8F4F9F4FAF4FB1E05B
:1010B0003ED0B4E03CD0670F781F891F9A1FA11D56
:1010C000680F791F8A1F911DA11D6A0F711D811D57
:1010D000911DA11D20D009F468943F912AE0269F1C
:1010E00011243019305D3193DEF6CF010895462F7B
:1010F0004770405D4193B3E00FD0C9F7F6CF462F5C
:101100004F70405D4A3318F0495D31FD40524193C4
:1011100002D0A9F7EACFB4E0A69597958795779581
:101120006795BA95C9F700976105710508959B0108
:10113000AC010A2E06945795479537952795BA9591
:10114000C9F7620F731F841F951FA01D0895F8949F
:02115000FFCFCF
:101152001E00320001003F065B4F666D7D077F6F08
:10116200010204085B322E706F72745F696E6974DB
:101172005D0D0A005B332E20696E746572727570A4
:10118200745F696E69745D0D0A005B342E74696D5B
:101192006572305F4E6F6D616C6D6F64655F696E15
:1011A20069745D0D0A005B352E74696D6572335F7B
:1011B2004E6F6D616C6D6F64655F696E69745D0D14
:1011C2000A0043757272656E742054696D65203A27
:1011D20020253032643A253032640D005B362E61B0
:1011E20064635F696E69745D0D0A00232A2A2A2AE4
:1011F2002A2A2A2A2A2A2A2A2A205B20494E53549A
:1012020052554354494F4E53205D202A2A2A2A2AF6
:101212002A2A2A2A2A2A2A230D0A002320312E20AA
:1012220050726573732027732720746F2073746163
:101232007274207468652070726F6772616D2E0D12
:101242000A002320322E20557365207468652073AE
:10125200776974636820746F20696E707574207486
:1012620068652063757272656E742074696D652E8F
:101272000D0A002320332E205365742074686520E4
:101282006D6F6465207573696E672074686520737D
:1012920077697463682E0D0A002320207B737731EF
:1012A2003A205365742F5475726E206F666620540F
:1012B200696D65722F416C61726D7D0D0A0023208C
:1012C200207B7377323A206D6F6465312020207362
:1012D20077333A206D6F6465322020207377343A79
:1012E200206D6F6465337D0D0A0023206D6F646588
:1012F200313A20446973706C617973207468652097
:1013020063757272656E742074696D650D0A0023CF
:10131200206D6F6465323A2053657473207468657A
:101322002074696D65720D0A0023206D6F64653348
:101332003A20536574732074686520616C61726D24
:101342000D0A002320342E20557365207468652011
:101352006A6F79737469636B20746F20736574208C
:101362007468652074696D6520666F7220746865A3
:101372000D0A00232020202054696D65722F416CD4
:1013820061726D20616E6420707265737320737771
:1013920069746368203120746F20636F6E666972AE
:1013A2006D2E0D0A002320352E205768656E20749D
:1013B20068652062757A7A657220736F756E6473E0
:1013C2002C2070726573732073776974636820319F
:1013D20020746F207475726E206974206F66662E99
:1013E2000D0A0023204E6F74653A20496620796FFA
:1013F20075207475726E206F66662074686520624F
:10140200757A7A6572206279207072657373696E7B
:10141200672073776974636820312C0D0A002320DA
:10142200202020202020626F746820746865207458
:10143200696D657220616E6420616C61726D2073EA
:10144200657474696E67732077696C6C20626520BD
:101452007475726E6564206F66662E0D0A00232015
:1014620050726573732027732720746F2073746121
:1014720072740D0A005B312E207573617274305FD5
:10148200696E69745D0D0A0053797374656D20533A
:10149200746172742E2E2E0D0A0043757272656E7F
:1014A200742054696D65203A20253032643A253023
:0614B2003264200D000071
:00000001FF
